:100000000C9430000C947A120C94B8120C940813CF
:100010000C944D000C944D000C944D000C944D002C
:100020000C944D000C944D000C944D000C944D001C
:100030000C944D000C944D000C944D000C944D000C
:100040000C944D000C944D000C944D000C944D00FC
:100050000C944D006364696E6F70737578585B0023
:1000600011241FBECFE5D8E0DEBFCDBF12E0A0E671
:10007000B0E0ECECF6E502C005900D92A833B107B4
:10008000D9F712E0A8E3B2E001C01D92A234B10793
:10009000E1F70E945C130C94642B0C940000EF9227
:1000A000FF920F931F937B018C0120E030E040E032
:1000B0005FE40E944F0388238CF0C801B70120E061
:1000C00030E040E05FE40E94C7010E940D049B0104
:1000D000AC01205030404040504806C0C801B70134
:1000E0000E940D049B01AC01B901CA011F910F913F
:1000F000FF90EF900895A0E0B0E0E1E8F0E00C940C
:10010000FB24DC012B01FA019C91923008F439C1E7
:10011000EB018881823008F433C1943069F4843073
:1001200009F02FC111969C9111978981981709F4B4
:1001300028C1A8E1B1E025C1843009F421C1823091
:10014000A9F4923009F01DC19A01AD0188E0EA01DD
:100150000990AE01E90109929E018150C1F7E201C7
:10016000898111969C918923818308C1923009F479
:1001700007C112962D903C901397EB018A819B81C9
:100180001496AD90BD90CD90DC901797EC80FD80DB
:100190000E811F819101281B390BB90137FF04C063
:1001A00066277727621B730B603271050CF061C004
:1001B000121613066CF537014801062E04C09694FA
:1001C0008794779467940A94D2F721E030E040E076
:1001D00050E004C0220F331F441F551F6A95D2F709
:1001E00021503040404050402E213F214023512398
:1001F000211531054105510521F021E030E040E0B5
:1002000050E079018A01E628F728082919293CC01D
:10021000232BD1F1260E371E35014601062E04C0D0
:1002200096948794779467940A94D2F721E030E00B
:1002300040E050E004C0220F331F441F551F6A9551
:10024000D2F721503040404050402A213B214C21E0
:100250005D21211531054105510521F021E030E0F6
:1002600040E050E059016A01A628B728C828D928DB
:100270000BC0821593052CF01C01AA24BB24650138
:1002800003C0EE24FF24870111969C91D2011196A0
:100290008C91981709F445C0992339F0A80197016A
:1002A0002A193B094C095D0906C0A60195012E19C2
:1002B0003F09400B510B57FD08C011823382228247
:1002C00024833583468357831DC081E08183338235
:1002D000228288279927DC01821B930BA40BB50B84
:1002E00084839583A683B7830DC0220F331F441FD9
:1002F000551F2483358346835783828193810197D9
:10030000938382832481358146815781DA01C90133
:100310000197A109B1098F5F9F4FAF4FBF4328F3EA
:100320000BC0918333822282EA0CFB1C0C1D1D1D25
:10033000E482F5820683178383E0808324813581FC
:100340004681578157FF1AC0C901AA2797FDA0957A
:10035000BA2F81709070A070B07056954795379500
:100360002795822B932BA42BB52B84839583A6836F
:10037000B78382819381019693838283DF0101C0D9
:10038000D201CD01CDB7DEB7E2E10C941725A0E292
:10039000B0E0EDECF1E00C94072569837A838B8360
:1003A0009C832D833E834F835887E9E0EE2EF12C0A
:1003B000EC0EFD1ECE010196B7010E9485058E014F
:1003C0000F5E1F4FCE010596B8010E9485058A89F0
:1003D00091E089278A8BC701B801AE01475E5F4F64
:1003E0000E947B000E94B004A096E6E00C942325B6
:1003F000A0E2B0E0EEEFF1E00C94072569837A8388
:100400008B839C832D833E834F835887F9E0EF2EA7
:10041000F12CEC0EFD1ECE010196B7010E94850560
:100420008E010F5E1F4FCE010596B8010E94850513
:10043000C701B801AE01475E5F4F0E947B000E947A
:10044000B004A096E6E00C942325A0E2B0E0EBE235
:10045000F2E00C94FB2469837A838B839C832D8345
:100460003E834F835887CE010196BE01675F7F4F61
:100470000E948505CE010596BE016F5E7F4F0E94EA
:1004800085059985923088F089898230C8F094304A
:1004900019F4823051F404C0843029F4923081F48C
:1004A00088E191E0C6C0923049F420E09A858A89BB
:1004B000981321E02A87CE010996BBC0823049F407
:1004C00020E09A858A89981321E02A8BCE014196F3
:1004D000B0C02D843E844F8458886D887E888F8874
:1004E000988CEE24FF248701AA24BB24650140E0F8
:1004F00050E060E070E0E0E0F0E0C10181709070F9
:10050000892BE9F0E60CF71C081D191D9A01AB01B7
:100510002A0D3B1D4C1D5D1D80E090E0A0E0B0E089
:10052000E614F7040805190520F481E090E0A0E046
:10053000B0E0BA01A901480F591F6A1F7B1FAA0C1E
:10054000BB1CCC1CDD1C97FE08C081E090E0A0E045
:10055000B0E0A82AB92ACA2ADB2A3196E032F1058E
:1005600049F0660C771C881C991C56944794379464
:100570002794C3CFFA85EA892B893C898B859C8592
:10058000280F391F2E5F3F4F17C0CA01817090702E
:10059000892B61F016950795F794E79480E090E039
:1005A000A0E0B0E8E82AF92A0A2B1B2B769567957C
:1005B000579547952F5F3F4F77FDE7CF0CC0440F0E
:1005C000551F661F771F17FD4160EE0CFF1C001FB3
:1005D000111F21503040403090E0590790E06907EA
:1005E00090E4790760F32B8F3C8FDB01CA018F7792
:1005F0009070A070B07080349105A105B10561F4D0
:1006000047FD0AC0E114F1040105110529F0405C21
:100610005F4F6F4F7F4F40781A8EFE1711F081E0C9
:100620008A8F4D8F5E8F6F8F78A383E0898FCE0185
:1006300049960E94B004A096E2E10C941725A8E127
:10064000B0E0E5E2F3E00C94072569837A838B83BD
:100650009C832D833E834F83588789E0E82EF12CBD
:10066000EC0EFD1ECE010196B7010E9485058E019C
:100670000F5E1F4FCE010596B8010E948505898542
:10068000823040F08989823028F0C701B8010E9489
:10069000FD0501C08FEF6896E6E00C942325A8E1E4
:1006A000B0E0E5E5F3E00C94072569837A838B835A
:1006B0009C832D833E834F83588789E0E82EF12C5D
:1006C000EC0EFD1ECE010196B7010E9485058E013C
:1006D0000F5E1F4FCE010596B8010E9485058985E2
:1006E000823040F08989823028F0C701B8010E9429
:1006F000FD0501C08FEF6896E6E00C942325A8E184
:10070000B0E0E5E8F3E00C94072569837A838B83F6
:100710009C832D833E834F83588789E0E82EF12CFC
:10072000EC0EFD1ECE010196B7010E9485058E01DB
:100730000F5E1F4FCE010596B8010E948505898581
:10074000823040F08989823028F0C701B8010E94C8
:10075000FD0501C081E06896E6E00C942325A8E041
:10076000B0E0E5EBF3E00C9404259B01AC0183E0E1
:100770008983DA01C9018827B7FD83959927AA27BC
:10078000BB27B82E211531054105510519F482E02A
:1007900089833AC08823A9F0203080E0380780E0C0
:1007A000480780E8580729F460E070E080E09FEC9B
:1007B00030C0EE24FF248701E21AF30A040B150B64
:1007C00002C079018A018EE1C82ED12CDC82CB8255
:1007D000ED82FE820F831887C801B7010E94610471
:1007E00001971816190684F4082E04C0EE0CFF1C9D
:1007F000001F111F0A94D2F7ED82FE820F83188723
:10080000C81AD90ADC82CB82BA82CE0101960E9434
:10081000B0042896E9E00C942025ACE0B0E0E3E1D8
:10082000F4E00C940B2569837A838B839C83CE013F
:100830000196BE016B5F7F4F0E9485058D818230DE
:1008400061F1823050F1843021F48E81882351F19E
:100850002EC02F81388537FD20C06E812F313105A4
:100860001CF06623F9F023C08EE190E0821B930B0D
:1008700029853A854B855C8504C056954795379503
:1008800027958A95D2F76623B1F05095409530951B
:1008900021953F4F4F4F5F4F0EC020E030E040E0CA
:1008A00050E009C02FEF3FEF4FEF5FE704C020E0BB
:1008B00030E040E050E8B901CA012C96E2E00C9427
:1008C0002725EF92FF920F931F937B018C0180E00D
:1008D000E81680E0F80681E0080780E0180788F451
:1008E0008FEFE816F1040105110531F028F088E0DA
:1008F00090E0A0E0B0E017C080E090E0A0E0B0E0C1
:1009000012C080E0E81680E0F80680E0080781E089
:10091000180728F088E190E0A0E0B0E004C080E192
:1009200090E0A0E0B0E020E230E040E050E0281BA2
:10093000390B4A0B5B0B04C016950795F794E794A7
:100940008A95D2F7F701E05EFE4F8081281B3109BE
:1009500041095109C9011F910F91FF90EF9008952E
:10096000DF92EF92FF920F931F93FC01E480F580DA
:1009700006811781D1808081823048F480E090E048
:10098000A0E1B0E0E82AF92A0A2B1B2BA5C084308D
:1009900009F49FC0823021F4EE24FF24870105C0B2
:1009A000E114F1040105110519F4E0E0F0E096C04E
:1009B000628173819FEF623879070CF05BC022E897
:1009C0003FEF261B370B2A3131052CF020E030E0B9
:1009D00040E050E02AC0B801A701022E04C076957D
:1009E0006795579547950A94D2F781E090E0A0E08B
:1009F000B0E004C0880F991FAA1FBB1F2A95D2F729
:100A00000197A109B1098E219F21A023B12300974D
:100A1000A105B10521F081E090E0A0E0B0E09A01ED
:100A2000AB01282B392B4A2B5B2BDA01C9018F77BD
:100A30009070A070B07080349105A105B10539F4B3
:100A400027FF09C0205C3F4F4F4F5F4F04C0215C20
:100A50003F4F4F4F5F4FE0E0F0E02030A0E03A071B
:100A6000A0E04A07A0E45A0710F0E1E0F0E07901C5
:100A70008A0127C06038710564F5FB01E158FF4F1A
:100A8000D801C7018F779070A070B0708034910545
:100A9000A105B10539F4E7FE0DC080E490E0A0E0C7
:100AA000B0E004C08FE390E0A0E0B0E0E80EF91EF3
:100AB0000A1F1B1F17FF05C016950795F794E794AB
:100AC000319687E016950795F794E7948A95D1F7C4
:100AD00005C0EE24FF248701EFEFF0E06E2F67954D
:100AE00066276795902F9F77D794DD24D7948E2F14
:100AF0008695492F462B582F5D29B701CA011F91B2
:100B00000F91FF90EF90DF900895FC01DB01408191
:100B100051812281622F6F7770E0221F2227221FCE
:100B20009381892F880F822B282F30E0991F9927D6
:100B3000991F11969C93119721153105A9F541151F
:100B400051056105710511F482E037C082E89FEF1D
:100B500013969C938E9312979A01AB0167E0220F34
:100B6000331F441F551F6A95D1F783E08C930DC046
:100B7000220F331F441F551F12968D919C9113977E
:100B8000019713969C938E931297203080E038073C
:100B900080E0480780E4580758F314962D933D935E
:100BA0004D935C93179708952F3F310579F44115C4
:100BB00051056105710519F484E08C93089564FF73
:100BC00003C081E08C9312C01C9210C02F5730409C
:100BD00013963C932E93129783E08C9387E0440FF7
:100BE000551F661F771F8A95D1F7706414964D9331
:100BF0005D936D937C93179708951F93DC01FB0120
:100C00009C91923008F447C08081823008F443C040
:100C1000943051F411961C91843099F58181682F9C
:100C200070E0611B71093FC0843021F0923031F4D3
:100C30008230B9F18181882389F12DC011961C91F0
:100C400011978230F1F081811817D9F412962D9105
:100C50003C911397828193818217930794F0281710
:100C60003907BCF014968D919D910D90BC91A02DEB
:100C70002481358146815781281739074A075B0748
:100C800018F4112341F00AC082179307A407B5078F
:100C900040F4112319F061E070E005C06FEF7FEFC1
:100CA00002C060E070E0CB011F910895DF93CF9305
:100CB000CDB7DEB7A5E5B0E0E5E5F0E080818E7F59
:100CC0008C93A5E5B0E0E5E5F0E080818D7F8C9325
:100CD000A5E5B0E0E5E5F0E080818B7F8C93A5E5AC
:100CE000B0E0E5E5F0E08081877F8C93A4E5B0E09B
:100CF000E4E5F0E080818F7B8C93A5E5B0E0E5E54D
:100D0000F0E080818C93A5E5B0E0E5E5F0E080813E
:100D100088608C93A4E5B0E0E4E5F0E080818C93FA
:100D2000CF91DF910895DF93CF93CDB7DEB7AFE5D5
:100D3000B0E0EFE5F0E0808180688C93CF91DF91A7
:100D40000895DF93CF93CDB7DEB7AFE5B0E0EFE521
:100D5000F0E080818F778C93CF91DF910895DF93BE
:100D6000CF93CDB7DEB7ABE5B0E0EBE5F0E0808147
:100D700080648C93CF91DF910895DF93CF93CDB7AB
:100D8000DEB7ABE5B0E0EBE5F0E080818F7B8C93E4
:100D9000CF91DF910895DF93CF9300D0CDB7DEB729
:100DA0009A8389830F900F90CF91DF910895DF93FD
:100DB000CF9300D000D000D0CDB7DEB789836A834F
:100DC0008A81813099F58981282F30E03E832D83F7
:100DD0008D819E8181309105D1F02D813E8122301F
:100DE00031052CF48D819E81009761F050C02D81DA
:100DF0003E812230310581F08D819E8183309105C5
:100E000081F045C0EAE3F0E08FEF808340C0E7E384
:100E1000F0E08FEF80833BC0E4E3F0E08FEF80836E
:100E200036C0E1E3F0E08FEF808331C08A81882310
:100E300071F58981282F30E03C832B838B819C8145
:100E400081309105C9F02B813C81223031052CF491
:100E50008B819C81009761F01AC02B813C812230EC
:100E6000310571F08B819C818330910569F00FC051
:100E7000EAE3F0E010820BC0E7E3F0E0108207C085
:100E8000E4E3F0E0108203C0E1E3F0E01082269694
:100E90000FB6F894DEBF0FBECDBFCF91DF9108959E
:100EA000DF93CF9300D000D0CDB7DEB789836A83BC
:100EB0008981282F30E03C832B838B819C8181307A
:100EC0009105D1F02B813C81223031052CF48B81AE
:100ED0009C81009761F01EC02B813C81223031053E
:100EE00081F08B819C818330910581F013C0EBE30D
:100EF000F0E08A8180830EC0E8E3F0E08A8180839D
:100F000009C0E5E3F0E08A81808304C0E2E3F0E019
:100F10008A8180830F900F900F900F90CF91DF9177
:100F20000895DF93CF93CDB7DEB727970FB6F89428
:100F3000DEBF0FBECDBF89836A834B838981843036
:100F400008F0EEC08A81883008F0EAC08B818130D9
:100F500009F06FC08981282F30E03F832E838E8176
:100F60009F818130910549F12E813F8122303105E9
:100F70002CF48E819F81009761F0D2C02E813F8139
:100F80002230310571F18E819F8183309105E9F125
:100F9000C7C0AAE3B0E0EAE3F0E08081482F8A818D
:100FA000282F30E081E090E0022E02C0880F991FC8
:100FB0000A94E2F7842B8C93B3C0A7E3B0E0E7E395
:100FC000F0E08081482F8A81282F30E081E090E096
:100FD000022E02C0880F991F0A94E2F7842B8C938B
:100FE0009FC0A4E3B0E0E4E3F0E08081482F8A8171
:100FF000282F30E081E090E0022E02C0880F991F78
:101000000A94E2F7842B8C938BC0A1E3B0E0E1E378
:10101000F0E08081482F8A81282F30E081E090E045
:10102000022E02C0880F991F0A94E2F7842B8C933A
:1010300077C08B81882309F073C08981282F30E025
:101040003D832C838C819D818130910559F12C81C8
:101050003D81223031052CF48C819D81009769F00F
:101060005FC02C813D812230310589F18C819D81C9
:101070008330910509F440C053C0AAE3B0E0EAE32D
:10108000F0E08081482F8A81282F30E081E090E0D5
:10109000022E02C0880F991F0A94E2F780958423DC
:1010A0008C933EC0A7E3B0E0E7E3F0E08081482FF7
:1010B0008A81282F30E081E090E0022E02C0880F64
:1010C000991F0A94E2F7809584238C9329C0A4E3A6
:1010D000B0E0E4E3F0E08081482F8A81282F30E0FF
:1010E00081E090E0022E02C0880F991F0A94E2F777
:1010F000809584238C9314C0A1E3B0E0E1E3F0E099
:101100008081482F8A81282F30E081E090E0022EF4
:1011100002C0880F991F0A94E2F7809584238C936C
:1011200027960FB6F894DEBF0FBECDBFCF91DF91EB
:101130000895DF93CF93CDB7DEB727970FB6F89416
:10114000DEBF0FBECDBF89836A834B838981843024
:1011500008F0EEC08A81883008F0EAC08B818130C7
:1011600009F06FC08981282F30E03F832E838E8164
:101170009F818130910549F12E813F8122303105D7
:101180002CF48E819F81009761F0D2C02E813F8127
:101190002230310571F18E819F8183309105E9F113
:1011A000C7C0ABE3B0E0EBE3F0E08081482F8A8179
:1011B000282F30E081E090E0022E02C0880F991FB6
:1011C0000A94E2F7842B8C93B3C0A8E3B0E0E8E381
:1011D000F0E08081482F8A81282F30E081E090E084
:1011E000022E02C0880F991F0A94E2F7842B8C9379
:1011F0009FC0A5E3B0E0E5E3F0E08081482F8A815D
:10120000282F30E081E090E0022E02C0880F991F65
:101210000A94E2F7842B8C938BC0A2E3B0E0E2E364
:10122000F0E08081482F8A81282F30E081E090E033
:10123000022E02C0880F991F0A94E2F7842B8C9328
:1012400077C08B81882309F073C08981282F30E013
:101250003D832C838C819D818130910559F12C81B6
:101260003D81223031052CF48C819D81009769F0FD
:101270005FC02C813D812230310589F18C819D81B7
:101280008330910509F440C053C0ABE3B0E0EBE319
:10129000F0E08081482F8A81282F30E081E090E0C3
:1012A000022E02C0880F991F0A94E2F780958423CA
:1012B0008C933EC0A8E3B0E0E8E3F0E08081482FE3
:1012C0008A81282F30E081E090E0022E02C0880F52
:1012D000991F0A94E2F7809584238C9329C0A5E393
:1012E000B0E0E5E3F0E08081482F8A81282F30E0EC
:1012F00081E090E0022E02C0880F991F0A94E2F765
:10130000809584238C9314C0A2E3B0E0E2E3F0E084
:101310008081482F8A81282F30E081E090E0022EE2
:1013200002C0880F991F0A94E2F7809584238C935A
:1013300027960FB6F894DEBF0FBECDBFCF91DF91D9
:101340000895DF93CF9300D000D00F92CDB7DEB7D2
:101350008A836B838A81843008F06BC08B818830EC
:1013600008F067C08A81282F30E03D832C834C81B0
:101370005D814130510541F18C819D818230910523
:1013800034F42C813D812115310561F052C04C812E
:101390005D814230510551F18C819D8183309105F1
:1013A000B9F147C0E9E3F0E08081282F30E08B817C
:1013B000882F90E0A90102C0559547958A95E2F7DC
:1013C000CA018170898335C0E6E3F0E08081282F6F
:1013D00030E08B81882F90E0A90102C05595479598
:1013E0008A95E2F7CA018170898323C0E3E3F0E0C4
:1013F0008081282F30E08B81882F90E0A90102C0E6
:10140000559547958A95E2F7CA018170898311C085
:10141000E0E3F0E08081282F30E08B81882F90E09E
:10142000A90102C0559547958A95E2F7CA018170D6
:10143000898389810F900F900F900F900F90CF911B
:10144000DF910895DF93CF93CDB7DEB760970FB6E6
:10145000F894DEBF0FBECDBF82E060E040E00E94A6
:10146000910782E061E040E00E94910782E062E043
:1014700040E00E94910782E063E040E00E94910713
:1014800082E064E040E00E94910782E065E040E095
:101490000E94910782E066E040E00E94910782E0AE
:1014A00067E040E00E9491071F86AFC082E06F8531
:1014B00041E00E94910782E06F8540E00E94990818
:1014C000188A26C08889982F9C5F82E0692F0E9425
:1014D000A1098823D1F48F85482F50E08889282FCF
:1014E00030E0CA01880F991F880F991F820F931F40
:1014F000FC01E05EFD4F808160960FB6F894DEBF80
:101500000FBECDBFCF91DF91089588898F5F888B03
:1015100088898430B8F282E06F8540E00E949107AC
:1015200080E090E0A0E2B1E48B879C87AD87BE8726
:101530006B857C858D859E8520E030E04AE755E40B
:101540000E942502DC01CB018F839887A987BA8787
:101550006F81788589859A8520E030E040E85FE3F7
:101560000E947F0388232CF481E090E09E838D838A
:101570003FC06F81788589859A8520E03FEF4FE7EE
:1015800057E40E941F0318164CF56B857C858D85EA
:101590009E8520E030E040E251E40E942502DC011B
:1015A000CB01BC01CD010E944F00DC01CB019E8329
:1015B0008D830FC080E991E09C838B838B819C811C
:1015C0000197F1F79C838B838D819E8101979E8388
:1015D0008D838D819E81009769F714C06F81788516
:1015E00089859A850E944F00DC01CB019E838D8303
:1015F0008D819E819A83898389819A810197F1F7F0
:101600009A8389838F858F5F8F878F85843008F4D5
:101610004DCF4ACFDF93CF93CDB7DEB7E8970FB664
:10162000F894DEBF0FBECDBF80E061E00E94D70618
:1016300080E090E0A0EFB1E48DAB9EABAFABB8AF74
:101640006DA97EA98FA998AD20E030E04AE755E466
:101650000E942502DC01CB0189AB9AABABABBCABE2
:1016600069A97AA98BA99CA920E030E040E85FE352
:101670000E947F0388232CF481E090E098AB8FA731
:101680003FC069A97AA98BA99CA920E03FEF4FE749
:1016900057E40E941F0318164CF56DA97EA98FA967
:1016A00098AD20E030E040E251E40E942502DC01E8
:1016B000CB01BC01CD010E944F00DC01CB0198ABF6
:1016C0008FA70FC080E991E09EA78DA78DA59EA54D
:1016D0000197F1F79EA78DA78FA598A9019798ABC1
:1016E0008FA78FA598A9009769F714C069A97AA94F
:1016F0008BA99CA90E944F00DC01CB0198AB8FA75E
:101700008FA598A99CA78BA78BA59CA50197F1F7FE
:101710009CA78BA780E290E00E94080D80E290E0F9
:101720000E94080D80E890E00E94080D80E090E0A3
:10173000A0E8BFE38FA398A7A9A7BAA76FA178A530
:1017400089A59AA520E030E04AE755E40E942502E9
:10175000DC01CB018BA39CA3ADA3BEA36BA17CA199
:101760008DA19EA120E030E040E85FE30E947F036E
:1017700088232CF481E090E09AA389A33FC06BA159
:101780007CA18DA19EA120E03FEF4FE757E40E948E
:101790001F0318164CF56FA178A589A59AA520E01E
:1017A00030E040E251E40E942502DC01CB01BC01A3
:1017B000CD010E944F00DC01CB019AA389A30FC089
:1017C00080E991E098A38F8F8F8D98A10197F1F711
:1017D00098A38F8F89A19AA101979AA389A389A120
:1017E0009AA1009769F714C06BA17CA18DA19EA15D
:1017F0000E944F00DC01CB019AA389A389A19AA181
:101800009E8F8D8F8D8D9E8D0197F1F79E8F8D8F81
:1018100080E090E00E94080D80EF90E00E94080DAB
:1018200080E090E0A0E8BFE3898F9A8FAB8FBC8FF8
:10183000698D7A8D8B8D9C8D20E030E04AE755E4F0
:101840000E942502DC01CB018D8B9E8BAF8BB88F64
:101850006D897E898F89988D20E030E040E85FE3D4
:101860000E947F0388232CF481E090E09C8B8B8B7B
:101870003FC06D897E898F89988D20E03FEF4FE7CB
:1018800057E40E941F0318164CF5698D7A8D8B8DD5
:101890009C8D20E030E040E251E40E942502DC0112
:1018A000CB01BC01CD010E944F00DC01CB019C8B20
:1018B0008B8B0FC080E991E09A8B898B89899A89FB
:1018C0000197F1F79A8B898B8B899C8901979C8B67
:1018D0008B8B8B899C89009769F714C06D897E89F1
:1018E0008F89988D0E944F00DC01CB019C8B8B8BE4
:1018F0008B899C89988B8F878F8598890197F1F7C1
:10190000988B8F8780E090E00E94080D81E090E046
:101910000E94080D80E090E0A0E0B0E48B879C87F7
:10192000AD87BE876B857C858D859E8520E030E008
:101930004AE755E40E942502DC01CB018F8398879A
:10194000A987BA876F81788589859A8520E030E0FC
:1019500040E85FE30E947F0388232CF481E090E05D
:101960009E838D833FC06F81788589859A8520E02D
:101970003FEF4FE757E40E941F0318164CF56B85A5
:101980007C858D859E8520E030E040E251E40E9418
:101990002502DC01CB01BC01CD010E944F00DC011E
:1019A000CB019E838D830FC080E991E09C838B8364
:1019B0008B819C810197F1F79C838B838D819E8124
:1019C00001979E838D838D819E81009769F714C056
:1019D0006F81788589859A850E944F00DC01CB0153
:1019E0009E838D838D819E819A83898389819A814B
:1019F0000197F1F79A83898381E080933802E89612
:101A00000FB6F894DEBF0FBECDBFCF91DF91089522
:101A1000DF93CF93CDB7DEB7AB970FB6F894DEBFA9
:101A20000FBECDBF8BA780E061E040E00E94990827
:101A300080E062E040E00E9499088BA582958F705B
:101A4000982F917080E064E0492F0E9499088BA53F
:101A5000829586958770982F917080E065E0492F78
:101A60000E9499088BA58295869586958370982FFC
:101A7000917080E066E0492F0E9499088BA5982F0D
:101A8000991F9927991F80E067E0492F0E949908C4
:101A900080E063E041E00E94990880E090E0A0E8E7
:101AA000BFE38FA398A7A9A7BAA76FA178A589A517
:101AB0009AA520E030E04AE755E40E942502DC01C7
:101AC000CB018BA39CA3ADA3BEA36BA17CA18DA1D5
:101AD0009EA120E030E040E85FE30E947F0388237E
:101AE0002CF481E090E09AA389A33FC06BA17CA174
:101AF0008DA19EA120E03FEF4FE757E40E941F0316
:101B000018164CF56FA178A589A59AA520E030E0BC
:101B100040E251E40E942502DC01CB01BC01CD0171
:101B20000E944F00DC01CB019AA389A30FC080E97A
:101B300091E098A38F8F8F8D98A10197F1F798A3CB
:101B40008F8F89A19AA101979AA389A389A19AA1AC
:101B5000009769F714C06BA17CA18DA19EA10E9482
:101B60004F00DC01CB019AA389A389A19AA19E8F82
:101B70008D8F8D8D9E8D0197F1F79E8F8D8F80E0DB
:101B800063E040E00E94990880913802882309F4BC
:101B9000A2C08BA5982F917080E064E0492F0E942D
:101BA00099088BA58695982F917080E065E0492F64
:101BB0000E9499088BA586958695982F917080E054
:101BC00066E0492F0E9499088BA586958695869593
:101BD000982F917080E067E0492F0E94990880E07B
:101BE00063E041E00E94990880E090E0A0E8BFE354
:101BF000898F9A8FAB8FBC8F698D7A8D8B8D9C8DE1
:101C000020E030E04AE755E40E942502DC01CB01E8
:101C10008D8B9E8BAF8BB88F6D897E898F89988DC8
:101C200020E030E040E85FE30E947F0388232CF44B
:101C300081E090E09C8B8B8B3FC06D897E898F8982
:101C4000988D20E03FEF4FE757E40E941F031816DE
:101C50004CF5698D7A8D8B8D9C8D20E030E040E2D3
:101C600051E40E942502DC01CB01BC01CD010E94A0
:101C70004F00DC01CB019C8B8B8B0FC080E991E086
:101C80009A8B898B89899A890197F1F79A8B898B2D
:101C90008B899C8901979C8B8B8B8B899C89009766
:101CA00069F714C06D897E898F89988D0E944F00D5
:101CB000DC01CB019C8B8B8B8B899C89988B8F87CC
:101CC0008F8598890197F1F7988B8F8780E063E083
:101CD00040E00E94990880E090E0A0E0B0E48B87AB
:101CE0009C87AD87BE876B857C858D859E8520E032
:101CF00030E04AE755E40E942502DC01CB018F83E6
:101D00009887A987BA876F81788589859A8520E029
:101D100030E040E85FE30E947F0388232CF481E0F9
:101D200090E09E838D833FC06F81788589859A85F9
:101D300020E03FEF4FE757E40E941F0318164CF5D1
:101D40006B857C858D859E8520E030E040E251E406
:101D50000E942502DC01CB01BC01CD010E944F0095
:101D6000DC01CB019E838D830FC080E991E09C83D1
:101D70008B838B819C810197F1F79C838B838D8171
:101D80009E8101979E838D838D819E81009769F747
:101D900014C06F81788589859A850E944F00DC0187
:101DA000CB019E838D838D819E819A8389838981D6
:101DB0009A810197F1F79A838983AB960FB6F894CD
:101DC000DEBF0FBECDBFCF91DF910895DF93CF93DC
:101DD000CDB7DEB7AB970FB6F894DEBF0FBECDBF61
:101DE0008BA780E061E041E00E94990880E062E01A
:101DF00040E00E9499088BA582958F70982F917072
:101E000080E064E0492F0E9499088BA58295869511
:101E10008770982F917080E065E0492F0E949908A3
:101E20008BA58295869586958370982F917080E01A
:101E300066E0492F0E9499088BA5982F991F992732
:101E4000991F80E067E0492F0E94990880E063E0D5
:101E500041E00E94990880E090E0A0E8BFE38FA3F2
:101E600098A7A9A7BAA76FA178A589A59AA520E0E8
:101E700030E04AE755E40E942502DC01CB018BA348
:101E80009CA3ADA3BEA36BA17CA18DA19EA120E0CC
:101E900030E040E85FE30E947F0388232CF481E078
:101EA00090E09AA389A33FC06BA17CA18DA19EA1C4
:101EB00020E03FEF4FE757E40E941F0318164CF550
:101EC0006FA178A589A59AA520E030E040E251E411
:101ED0000E942502DC01CB01BC01CD010E944F0014
:101EE000DC01CB019AA389A30FC080E991E098A3FC
:101EF0008F8F8F8D98A10197F1F798A38F8F89A16C
:101F00009AA101979AA389A389A19AA1009769F739
:101F100014C06BA17CA18DA19EA10E944F00DC0189
:101F2000CB019AA389A389A19AA19E8F8D8F8D8DB4
:101F30009E8D0197F1F79E8F8D8F80E063E040E0EA
:101F40000E9499088BA5982F917080E064E0492F3A
:101F50000E9499088BA58695982F917080E065E086
:101F6000492F0E9499088BA586958695982F917088
:101F700080E066E0492F0E9499088BA5869586959A
:101F80008695982F917080E067E0492F0E9499080C
:101F900080E063E041E00E94990880E090E0A0E8E2
:101FA000BFE3898F9A8FAB8FBC8F698D7A8D8B8DB4
:101FB0009C8D20E030E04AE755E40E942502DC01D8
:101FC000CB018D8B9E8BAF8BB88F6D897E898F896E
:101FD000988D20E030E040E85FE30E947F03882393
:101FE0002CF481E090E09C8B8B8B3FC06D897E89C7
:101FF0008F89988D20E03FEF4FE757E40E941F0341
:1020000018164CF5698D7A8D8B8D9C8D20E030E013
:1020100040E251E40E942502DC01CB01BC01CD016C
:102020000E944F00DC01CB019C8B8B8B0FC080E9A1
:1020300091E09A8B898B89899A890197F1F79A8B1C
:10204000898B8B899C8901979C8B8B8B8B899C8935
:10205000009769F714C06D897E898F89988D0E94D9
:102060004F00DC01CB019C8B8B8B8B899C89988BDF
:102070008F878F8598890197F1F7988B8F8780E0FC
:1020800063E040E00E94990880E090E0A0E0B0E4C6
:102090008B879C87AD87BE876B857C858D859E856C
:1020A00020E030E04AE755E40E942502DC01CB0144
:1020B0008F839887A987BA876F81788589859A8564
:1020C00020E030E040E85FE30E947F0388232CF4A7
:1020D00081E090E09E838D833FC06F817885898504
:1020E0009A8520E03FEF4FE757E40E941F03181640
:1020F0004CF56B857C858D859E8520E030E040E247
:1021000051E40E942502DC01CB01BC01CD010E94FB
:102110004F00DC01CB019E838D830FC080E991E0ED
:102120009C838B838B819C810197F1F79C838B83AC
:102130008D819E8101979E838D838D819E810097E5
:1021400069F714C06F81788589859A850E944F0050
:10215000DC01CB019E838D838D819E819A8389834F
:1021600089819A810197F1F79A838983AB960FB69B
:10217000F894DEBF0FBECDBFCF91DF910895DF93FE
:10218000CF9300D00F92CDB7DEB78A836B838A815D
:102190008230C8F48B818031B0F48A81882F90E03E
:1021A0000024969587950794969587950794982F80
:1021B000802D982F8B81890F8983898180688983FD
:1021C00089810E94080D0F900F900F90CF91DF91A1
:1021D0000895DF93CF9300D000D000D0CDB7DEB705
:1021E0009C838B836D834E838D816E810E94BF1093
:1021F0001A82198270C08D81882F90E0AC014295BF
:102200005295507F5427407F54278A81282F30E0F1
:102210008E81882F90E0820F931F840F951F80314D
:1022200091057CF48A81282F30E08B819C81FC0110
:10223000E20FF31F80810E94E60E8A818F5F8A83FE
:102240004AC08D81882F90E0AC0142955295507F15
:102250005427407F54278A81282F30E08E81882F91
:1022600090E0820F931F840F951F8031910559F4E0
:102270008981882341F481E060E00E94BF10898158
:102280008F5F898328C08D81882F90E0AC014295B3
:102290005295507F5427407F54278A81282F30E061
:1022A0008E81882F90E0820F931F840F951F8032BC
:1022B00091058CF48981813071F48A81282F30E076
:1022C0008B819C81FC01E20FF31F80810E94E60E4E
:1022D0008A818F5F8A838A81282F30E08B819C815D
:1022E000FC01E20FF31F80818823C1F08D81882FCC
:1022F00090E0AC0142955295507F5427407F54277F
:102300008A81282F30E08E81882F90E0820F931FE2
:10231000840F951F803291050CF46DCF26960FB671
:10232000F894DEBF0FBECDBFCF91DF910895DF934C
:10233000CF93CDB7DEB781E00E94080DCF91DF913A
:102340000895DF93CF93CDB7DEB760970FB6F894BB
:10235000DEBF0FBECDBF9A8789874B875C876D87AD
:102360007E876B857C858D859E850E940D04DC01B2
:10237000CB0198878F838F819885AA2797FDA09599
:10238000BA2FBC01CD010E94AF039B01AC016B854C
:102390007C858D859E850E94C701DC01CB018B83E6
:1023A0009C83AD83BE836B817C818D819E8120E087
:1023B00030E048EC52E40E942502DC01CB01BC0174
:1023C000CD010E947025DC01CB01BC01CD010E9432
:1023D0000D04DC01CB019A83898389819A81988BD2
:1023E0008F878F85988999233CF48F85988990955C
:1023F00081959F4F988B8F878DB79EB708970FB6A3
:10240000F8949EBF0FBE8DBFEDB7FEB7319689859C
:102410009A859183808380E690E0938382838F8185
:102420009885958384838F859889978386830E9476
:1024300032258DB79EB708960FB6F8949EBF0FBE93
:102440008DBF60960FB6F894DEBF0FBECDBFCF91A3
:10245000DF910895DF93CF9300D000D000D0CDB7A7
:10246000DEB79A8389834B835C836D837E838DB7CC
:102470009EB708970FB6F8949EBF0FBE8DBFEDB7FD
:10248000FEB7319689819A819183808388E690E0B6
:10249000938382838B819C81AD81BE81848395836C
:1024A000A683B7830E9432258DB79EB708960FB6D4
:1024B000F8949EBF0FBE8DBF26960FB6F894DEBF70
:1024C0000FBECDBFCF91DF910895DF93CF93CDB7EE
:1024D000DEB7A1E3B0E0E1E3F0E0808180618C93BE
:1024E000A2E3B0E0E2E3F0E080818F7E8C93CF91B5
:1024F000DF9108951F920F920FB60F9211242F9320
:102500003F934F935F936F937F938F939F93AF937B
:10251000BF93EF93FF93DF93CF930F92CDB7DEB7C7
:1025200080913902813021F080913902823061F44A
:10253000809141021982882311F481E08983898185
:10254000809341020E9497110F90CF91DF91FF91EC
:10255000EF91BF91AF919F918F917F916F915F911B
:102560004F913F912F910F900FBE0F901F90189594
:102570001F920F920FB60F9211242F933F934F93F8
:102580005F936F937F938F939F93AF93BF93EF93DB
:10259000FF93DF93CF93CDB7DEB7809139028130BF
:1025A00079F410923C0210923B0210923E0210927B
:1025B0003D021092400210923F020E94971115C0F6
:1025C00080913902823089F410923E0210923D02CD
:1025D0001092400210923F02A2E3B0E0E2E3F0E08A
:1025E000808180618C930E949711CF91DF91FF9140
:1025F000EF91BF91AF919F918F917F916F915F917B
:102600004F913F912F910F900FBE0F901F901895F3
:102610001F920F920FB60F9211242F933F934F9357
:102620005F936F937F938F939F93AF93BF93EF933A
:10263000FF93DF93CF93CDB7DEB78091390281301E
:1026400021F482E0809339020CC080913902882FF6
:1026500090E0019623E030E0B9010E949724809336
:1026600039020E949711CF91DF91FF91EF91BF91B5
:10267000AF919F918F917F916F915F914F913F911A
:102680002F910F900FBE0F901F901895DF93CF934F
:10269000CDB7DEB7A5E5B0E0E5E5F0E080818F6479
:1026A0008C93ABE5B0E0EBE5F0E08081806E8C933D
:1026B0007894CF91DF910895EF92FF920F931F933B
:1026C000DF93CF93CDB7DEB7CB55D1400FB6F8949B
:1026D000DEBF0FBECDBF0E940A0B0E946512FE0135
:1026E000EA5EFE4F1082118212821382FE01EE5EBC
:1026F000FE4F1082118212821382FE01E25FFE4FB2
:10270000108211821282138280913A02882309F08A
:10271000BEC08CE690E060E040E00E94E910FE015F
:10272000E95FFE4F80E090E0AAE7B4E48083918304
:10273000A283B3838E010D5F1E4FFE01E95FFE4F42
:10274000608171818281938120E030E04AE755E425
:102750000E942502DC01CB01F80180839183A283D2
:10276000B383FE01ED5FFE4F6081718182819381B1
:1027700020E030E040E85FE30E947F03882344F4D8
:10278000FE01EF5FFE4F81E090E09183808364C0A3
:10279000FE01ED5FFE4F608171818281938120E0B7
:1027A0003FEF4FE757E40E941F0318160CF043C099
:1027B000FE01E95FFE4F608171818281938120E09B
:1027C00030E040E251E40E942502DC01CB018E01A1
:1027D0000F5F1E4FBC01CD010E944F00DC01CB01F9
:1027E000F801918380831FC0FE01E150FF4F80E913
:1027F00091E091838083FE01E150FF4F80819181C0
:102800000197F1F7FE01E150FF4F91838083DE01D4
:10281000AF5FBE4FFE01EF5FFE4F80819181019758
:1028200011969C938E93FE01EF5FFE4F8081918104
:102830000097D1F627C08E010F5F1E4FFE01ED5F9E
:10284000FE4F60817181828193810E944F00DC0183
:10285000CB01F80191838083DE01A350BF4FFE01BD
:10286000EF5FFE4F808191818D939C93FE01E35039
:10287000FF4F808191810197F1F7FE01E350FF4FF7
:102880009183808381E080933A020E9497110E9495
:102890004613CE01855C9E4FC95ADE4F99838883CB
:1028A000C755D14001E312E0C75ADE4F19830883B0
:1028B000C955D14016E0C55ADE4F1883CB55D140DB
:1028C000C75ADE4FE881F981C955D1400080C75A07
:1028D000DE4F08811981C955D1400F5F1F4FC75A7C
:1028E000DE4F19830883C955D140C95ADE4FE881AC
:1028F000F981C755D1400082C95ADE4F088119813C
:10290000C755D1400F5F1F4FC95ADE4F1983088347
:10291000C755D140C55ADE4F1881CB55D140115013
:10292000C55ADE4F1883CB55D140C55ADE4F28819A
:10293000CB55D140222321F6FE01E45FFE4F1182E8
:1029400010829091300280913902981709F425C3C2
:102950000E94971180913902809330028091390250
:10296000823009F0D1C084E790E060E040E00E944E
:10297000E910FE01E750FF4F80E090E0AAE7B4E4E1
:1029800080839183A283B3838E010B501F4FFE017E
:10299000E750FF4F608171818281938120E030E0B8
:1029A0004AE755E40E942502DC01CB01F80180834F
:1029B0009183A283B383FE01EB50FF4F608171814D
:1029C0008281938120E030E040E85FE30E947F0352
:1029D000882344F4FE01ED50FF4F81E090E09183A5
:1029E000808364C0FE01EB50FF4F60817181828162
:1029F000938120E03FEF4FE757E40E941F03181632
:102A00000CF043C0FE01E750FF4F6081718182816D
:102A1000938120E030E040E251E40E942502DC0195
:102A2000CB018E010D501F4FBC01CD010E944F0004
:102A3000DC01CB01F801918380831FC0FE01EF50C0
:102A4000FF4F80E991E091838083FE01EF50FF4FBB
:102A5000808191810197F1F7FE01EF50FF4F918343
:102A60008083DE01AD50BF4FFE01ED50FF4F8081EE
:102A70009181019711969C938E93FE01ED50FF4F2B
:102A8000808191810097D1F627C08E010D501F4F94
:102A9000FE01EB50FF4F60817181828193810E9422
:102AA0004F00DC01CB01F80191838083DE01A1514D
:102AB000BF4FFE01ED50FF4F808191818D939C931C
:102AC000FE01E151FF4F808191810197F1F7FE01F5
:102AD000E151FF4F918380830E9497118FE790E02F
:102AE00060E040E00E94E91081E060E00E94BF10D9
:102AF000CE01855C9E4F61E040E00E94E910FE013E
:102B0000E45FFE4F1182108280913902E82EFF248B
:102B1000CB5ADE4FF982E882C555D140CB5ADE4F01
:102B200008811981C555D1400115110559F0CB5ABD
:102B3000DE4F28813981C555D1402130310509F456
:102B4000BDC077C18BE890E060E040E00E94E910F2
:102B5000FE01E551FF4F80E090E0AAE7B4E48083F6
:102B60009183A283B3838E0109511F4FFE01E5516A
:102B7000FF4F608171818281938120E030E04AE7DC
:102B800055E40E942502DC01CB01F801808391838A
:102B9000A283B383FE01E951FF4F6081718182817D
:102BA000938120E030E040E85FE30E947F038823C8
:102BB00044F4FE01EB51FF4F81E090E0918380836C
:102BC00064C0FE01E951FF4F608171818281938170
:102BD00020E03FEF4FE757E40E941F0318160CF068
:102BE00043C0FE01E551FF4F608171818281938175
:102BF00020E030E040E251E40E942502DC01CB01FC
:102C00008E010B511F4FBC01CD010E944F00DC0112
:102C1000CB01F801918380831FC0FE01ED51FF4F6E
:102C200080E991E091838083FE01ED51FF4F808127
:102C300091810197F1F7FE01ED51FF4F9183808360
:102C4000DE01AB51BF4FFE01EB51FF4F80819181FF
:102C5000019711969C938E93FE01EB51FF4F80815B
:102C600091810097D1F627C08E010B511F4FFE01B5
:102C7000E951FF4F60817181828193810E944F00F1
:102C8000DC01CB01F80191838083DE01AF51BF4F9E
:102C9000FE01EB51FF4F808191818D939C93FE014A
:102CA000EF51FF4F808191810197F1F7FE01EF51C4
:102CB000FF4F918380830E949711BBC08BE990E006
:102CC00060E040E00E94E910FE01E352FF4F80E027
:102CD00090E0AAE7B4E480839183A283B3838E015A
:102CE00007521F4FFE01E352FF4F608171818281C5
:102CF000938120E030E04AE755E40E942502DC01A0
:102D0000CB01F80180839183A283B383FE01E75254
:102D1000FF4F608171818281938120E030E040E843
:102D20005FE30E947F03882344F4FE01E952FF4FD2
:102D300081E090E09183808364C0FE01E752FF4F01
:102D4000608171818281938120E03FEF4FE757E4FA
:102D50000E941F0318160CF043C0FE01E352FF4F00
:102D6000608171818281938120E030E040E251E412
:102D70000E942502DC01CB018E0109521F4FBC01CC
:102D8000CD010E944F00DC01CB01F80191838083CB
:102D90001FC0FE01EB52FF4F80E991E091838083D9
:102DA000FE01EB52FF4F808191810197F1F7FE0107
:102DB000EB52FF4F91838083DE01A952BF4FFE018A
:102DC000E952FF4F80819181019711969C938E93D8
:102DD000FE01E952FF4F808191810097D1F627C013
:102DE0008E0109521F4FFE01E752FF4F6081718132
:102DF000828193810E944F00DC01CB01F801918315
:102E00008083DE01AD52BF4FFE01E952FF4F80814A
:102E100091818D939C93FE01ED52FF4F80819181B2
:102E20000197F1F7FE01ED52FF4F918380830E94DD
:102E30009711FE01E153FF4F80E090E0AAEFB3E469
:102E400080839183A283B3838E0105531F4FFE01BC
:102E5000E153FF4F608171818281938120E030E0F6
:102E60004AE755E40E942502DC01CB01F80180838A
:102E70009183A283B383FE01E553FF4F608171818B
:102E80008281938120E030E040E85FE30E947F038D
:102E9000882344F4FE01E753FF4F81E090E09183E3
:102EA000808364C0FE01E553FF4F608171818281A0
:102EB000938120E03FEF4FE757E40E941F0318166D
:102EC0000CF043C0FE01E153FF4F608171818281AC
:102ED000938120E030E040E251E40E942502DC01D1
:102EE000CB018E0107531F4FBC01CD010E944F0043
:102EF000DC01CB01F801918380831FC0FE01E953FF
:102F0000FF4F80E991E091838083FE01E953FF4FF9
:102F1000808191810197F1F7FE01E953FF4F918381
:102F20008083DE01A753BF4FFE01E753FF4F80812F
:102F30009181019711969C938E93FE01E753FF4F69
:102F4000808191810097D1F628C08E0107531F4FD1
:102F5000FE01E553FF4F60817181828193810E9460
:102F60004F00DC01CB01F80191838083DE01AB537C
:102F7000BF4FFE01E753FF4F8081918111969C93D3
:102F80008E93FE01EB53FF4F808191810197F1F702
:102F9000FE01EB53FF4F9183808380913902E82E2D
:102FA000FF24CD5ADE4FF982E882C355D140CD5A75
:102FB000DE4F08811981C355D1400130110509F454
:102FC000FEC6CD5ADE4F28813981C355D14022300B
:102FD000310511F40C94FE23CD5ADE4F888199817E
:102FE000C355D140009711F00C9403248AEA90E075
:102FF00060E040E00E94E91081E060E00E94BF10C4
:10300000FE01EA5EFE4F10821182128213820EC10F
:103010000E94220AFE01E65EFE4F8083FE01E65E0C
:10302000FE4F8081803308F4E9C0FE01E65EFE4F6A
:1030300080818A3308F0E2C0FE01EA5EFE4F8081A3
:103040009181A281B3812AE030E040E050E0BC01F0
:10305000CD010E9478249B01AC01FE01E65EFE4F8B
:103060008081882F90E0C097AA2797FDA095BA2F5E
:10307000FE01EA5EFE4F820F931FA41FB51F8083DF
:103080009183A283B383FE01E65EFE4F80810E949E
:10309000E60EFE01EF53FF4F80E090E0AAE7B3E4B5
:1030A00080839183A283B3838E0103541F4FFE015B
:1030B000EF53FF4F608171818281938120E030E086
:1030C0004AE755E40E942502DC01CB01F801808328
:1030D0009183A283B383FE01E354FF4F608171812A
:1030E0008281938120E030E040E85FE30E947F032B
:1030F000882344F4FE01E554FF4F81E090E0918382
:10310000808364C0FE01E354FF4F6081718182813E
:10311000938120E03FEF4FE757E40E941F0318160A
:103120000CF043C0FE01EF53FF4F6081718182813B
:10313000938120E030E040E251E40E942502DC016E
:10314000CB018E0105541F4FBC01CD010E944F00E1
:10315000DC01CB01F801918380831FC0FE01E7549D
:10316000FF4F80E991E091838083FE01E754FF4F98
:10317000808191810197F1F7FE01E754FF4F918320
:103180008083DE01A554BF4FFE01E554FF4F8081CF
:103190009181019711969C938E93FE01E554FF4F08
:1031A000808191810097D1F641C08E0105541F4F57
:1031B000FE01E354FF4F60817181828193810E94FF
:1031C0004F00DC01CB01F80191838083DE01A9541B
:1031D000BF4FFE01E554FF4F8081918111969C9372
:1031E0008E93FE01E954FF4F808191810197F1F7A1
:1031F000FE01E954FF4F9183808318C0FE01E65E13
:10320000FE4F80818B32B9F0FE01E65EFE4F808179
:103210008D3289F0FE01E65EFE4F80818A3259F0E0
:10322000FE01E65EFE4F80818F3229F080913902E7
:10323000882309F4EDCE0E94971186EB90E060E0C0
:1032400040E00E94E910DE01A55FBE4FFE01E65E90
:10325000FE4F80818C9381E060E00E94BF10FE01F0
:10326000E65EFE4F80810E94E60EFE01ED54FF4FA8
:1032700080E090E0AAEFB3E480839183A283B383DC
:103280008E0101551F4FFE01ED54FF4F608171818A
:103290008281938120E030E04AE755E40E942502D4
:1032A000DC01CB01F80180839183A283B383FE010B
:1032B000E155FF4F608171818281938120E030E090
:1032C00040E85FE30E947F03882344F4FE01E35556
:1032D000FF4F81E090E09183808364C0FE01E1555F
:1032E000FF4F608171818281938120E03FEF4FE742
:1032F00057E40E941F0318160CF043C0FE01ED5462
:10330000FF4F608171818281938120E030E040E253
:1033100051E40E942502DC01CB018E0103551F4FB1
:10332000BC01CD010E944F00DC01CB01F80191836B
:1033300080831FC0FE01E555FF4F80E991E0918336
:103340008083FE01E555FF4F808191810197F1F760
:10335000FE01E555FF4F91838083DE01A355BF4FEA
:10336000FE01E355FF4F80819181019711969C9357
:103370008E93FE01E355FF4F808191810097D1F636
:1033800027C08E0103551F4FFE01E155FF4F60819D
:103390007181828193810E944F00DC01CB01F80191
:1033A00091838083DE01A755BF4FFE01E355FF4F98
:1033B000808191818D939C93FE01E755FF4F808121
:1033C00091810197F1F7FE01E755FF4F91838083CB
:1033D0000E94971186EC90E060E040E00E94E910C6
:1033E00081E060E00E94BF10FE01EE5EFE4F1082A1
:1033F000118212821382FCC00E94220AFE01E65E44
:10340000FE4F8083FE01E65EFE4F8081803308F42C
:10341000E9C0FE01E65EFE4F80818A3308F0E2C01B
:10342000FE01EE5EFE4F80819181A281B3812AE090
:1034300030E040E050E0BC01CD010E9478249B01C7
:10344000AC01FE01E65EFE4F8081882F90E0C097C0
:10345000AA2797FDA095BA2FFE01EE5EFE4F820FC0
:10346000931FA41FB51F80839183A283B383FE01A2
:10347000E65EFE4F80810E94E60EFE01EB55FF4F97
:1034800080E090E0AAE7B3E480839183A283B383D2
:103490008E010F551F4FFE01EB55FF4F608171816B
:1034A0008281938120E030E04AE755E40E942502C2
:1034B000DC01CB01F80180839183A283B383FE01F9
:1034C000EF55FF4F608171818281938120E030E070
:1034D00040E85FE30E947F03882344F4FE01E15645
:1034E000FF4F81E090E09183808364C0FE01EF553F
:1034F000FF4F608171818281938120E03FEF4FE730
:1035000057E40E941F0318160CF043C0FE01EB5550
:10351000FF4F608171818281938120E030E040E241
:1035200051E40E942502DC01CB018E0101561F4FA0
:10353000BC01CD010E944F00DC01CB01F801918359
:1035400080831FC0FE01E356FF4F80E991E0918325
:103550008083FE01E356FF4F808191810197F1F74F
:10356000FE01E356FF4F91838083DE01A156BF4FDA
:10357000FE01E156FF4F80819181019711969C9346
:103580008E93FE01E156FF4F808191810097D1F625
:103590002FC08E0101561F4FFE01EF55FF4F608176
:1035A0007181828193810E944F00DC01CB01F8017F
:1035B00091838083DE01A556BF4FFE01E156FF4F88
:1035C0008081918111969C938E93FE01E556FF4F69
:1035D000808191810197F1F7FE01E556FF4F9183BC
:1035E000808306C0FE01E65EFE4F80818D3329F0A8
:1035F00080913902882309F4FFCEFE01E55FFE4F7A
:103600008081E82EFF24CF5ADE4FF982E882C1552F
:10361000D140CF5ADE4F08811981C155D1400B32BC
:10362000110541F1CF5ADE4F28813981C155D14072
:103630002C3231055CF4CF5ADE4F88819981C15517
:10364000D1408A32910509F451C055C1CF5ADE4F9D
:10365000E881F981C155D140ED32F10539F1CF5AF8
:10366000DE4F08811981C155D1400F32110509F48F
:103670005BC041C1BE01625F7E4FFE01EA5EFE4F4C
:10368000DE01AE5EBE4F20813181428153818D913A
:103690009D910D90BC91A02D820F931FA41FB51F6B
:1036A000FB0180839183A283B383E4C1BE01625F87
:1036B0007E4FFE01EA5EFE4FDE01AE5EBE4F208110
:1036C0003181428153818D919D910D90BC91A02DAE
:1036D00079018A01E81AF90A0A0B1B0BD801C70104
:1036E000FB0180839183A283B383C4C18E01025FF7
:1036F0001E4FFE01EA5EFE4F9E012E5E3E4F808110
:103700009181A281B381F90120813181428153816C
:10371000BC01CD010E947824DC01CB01F80180833B
:103720009183A283B383A6C1FE01EE5EFE4F80812A
:103730009181A281B3810097A105B10509F0BDC0B7
:103740000E94971182ED90E060E040E00E94E91055
:10375000FE01E956FF4F80E090E0AAEFB4E48083D9
:103760009183A283B3838E010D561F4FFE01E9564C
:10377000FF4F608171818281938120E030E04AE7D0
:1037800055E40E942502DC01CB01F801808391837E
:10379000A283B383FE01ED56FF4F60817181828168
:1037A000938120E030E040E85FE30E947F038823BC
:1037B00044F4FE01EF56FF4F81E090E09183808357
:1037C00064C0FE01ED56FF4F60817181828193815B
:1037D00020E03FEF4FE757E40E941F0318160CF05C
:1037E00043C0FE01E956FF4F608171818281938160
:1037F00020E030E040E251E40E942502DC01CB01F0
:103800008E010F561F4FBC01CD010E944F00DC01FD
:10381000CB01F801918380831FC0FE01E157FF4F68
:1038200080E991E091838083FE01E157FF4F808121
:1038300091810197F1F7FE01E157FF4F918380835A
:10384000DE01AF56BF4FFE01EF56FF4F80819181E1
:10385000019711969C938E93FE01EF56FF4F808146
:1038600091810097D1F66DC88E010F561F4FFE0152
:10387000ED56FF4F60817181828193810E944F00DC
:10388000DC01CB01F80191838083DE01A357BF4F98
:10389000FE01EF56FF4F8081918111969C938E938C
:1038A000FE01E357FF4F808191810197F1F7FE01FF
:1038B000E357FF4F9183808344C88E01025F1E4F00
:1038C000FE01EA5EFE4F9E012E5E3E4F8081918199
:1038D000A281B381F9012081318142815381BC01F0
:1038E000CD010E94AA24DA01C901F80180839183E5
:1038F000A283B383BFC00E9497118DED90E060E07A
:1039000040E00E94E910FE01E757FF4F80E090E0A1
:10391000A8ECB2E480839183A283B3838E010B571A
:103920001F4FFE01E757FF4F6081718182819381B4
:1039300020E030E04AE755E40E942502DC01CB019B
:10394000F80180839183A283B383FE01EB57FF4F7D
:10395000608171818281938120E030E040E85FE303
:103960000E947F03882344F4FE01ED57FF4F81E05E
:1039700090E09183808365C0FE01EB57FF4F60812B
:1039800071818281938120E03FEF4FE757E40E94ED
:103990001F0318160CF044C0FE01E757FF4F60816B
:1039A00071818281938120E030E040E251E40E9405
:1039B0002502DC01CB018E010D571F4FBC01CD014B
:1039C0000E944F00DC01CB01F801918380831FC06E
:1039D000FE01EF57FF4F80E991E091838083FE0164
:1039E000EF57FF4F808191810197F1F7FE01EF576B
:1039F000FF4F91838083DE01AD57BF4FFE01ED572E
:103A0000FF4F80819181019711969C938E93FE01C7
:103A1000ED57FF4F808191810097D1F60C94A1144E
:103A20008E010D571F4FFE01EB57FF4F60817181D3
:103A3000828193810E944F00DC01CB01F8019183C8
:103A40008083DE01A158BF4FFE01ED57FF4F8081FB
:103A5000918111969C938E93FE01E158FF4F8081D6
:103A600091810197F1F7FE01E158FF4F9183808327
:103A70000C94A114FE01E55FFE4F80818F3209F0A6
:103A8000D1C0FE01E25FFE4F60817181828193812E
:103A90000E94AF039B01AC01CE01855E9E4FBA012F
:103AA000A9010E94A1110E949711CE01855E9E4F2F
:103AB00060E040E00E94E910FE01E558FF4F80E021
:103AC00090E0AAEFB4E480839183A283B3838E0154
:103AD00009581F4FFE01E558FF4F608171818281B7
:103AE000938120E030E04AE755E40E942502DC01A2
:103AF000CB01F80180839183A283B383FE01E9584F
:103B0000FF4F608171818281938120E030E040E845
:103B10005FE30E947F03882344F4FE01EB58FF4FCC
:103B200081E090E09183808364C0FE01E958FF4FFB
:103B3000608171818281938120E03FEF4FE757E4FC
:103B40000E941F0318160CF043C0FE01E558FF4FFA
:103B5000608171818281938120E030E040E251E414
:103B60000E942502DC01CB018E010B581F4FBC01C6
:103B7000CD010E944F00DC01CB01F80191838083CD
:103B80001FC0FE01ED58FF4F80E991E091838083D3
:103B9000FE01ED58FF4F808191810197F1F7FE0101
:103BA000ED58FF4F91838083DE01AB58BF4FFE017C
:103BB000EB58FF4F80819181019711969C938E93D2
:103BC000FE01EB58FF4F808191810097D1F627C00D
:103BD0008E010B581F4FFE01E958FF4F6081718124
:103BE000828193810E944F00DC01CB01F801918317
:103BF0008083DE01AF58BF4FFE01EB58FF4F80813D
:103C000091818D939C93FE01EF58FF4F80819181AC
:103C10000197F1F7FE01EF58FF4F918380830E94D7
:103C20009711F1C5CE01855E9E4FFE01E25FFE4F0A
:103C30002081318142815381BA01A9010E942A1257
:103C40000E949711CE01855E9E4F60E040E00E9489
:103C5000E910FE01E359FF4F80E090E0AAEFB4E4E1
:103C600080839183A283B3838E0107591F4FFE0186
:103C7000E359FF4F608171818281938120E030E0C0
:103C80004AE755E40E942502DC01CB01F80180835C
:103C90009183A283B383FE01E759FF4F6081718155
:103CA0008281938120E030E040E85FE30E947F035F
:103CB000882344F4FE01E959FF4F81E090E09183AD
:103CC000808364C0FE01E759FF4F6081718182816A
:103CD000938120E03FEF4FE757E40E941F0318163F
:103CE0000CF043C0FE01E359FF4F60817181828176
:103CF000938120E030E040E251E40E942502DC01A3
:103D0000CB018E0109591F4FBC01CD010E944F000C
:103D1000DC01CB01F801918380831FC0FE01EB59C8
:103D2000FF4F80E991E091838083FE01EB59FF4FC3
:103D3000808191810197F1F7FE01EB59FF4F91834B
:103D40008083DE01A959BF4FFE01E959FF4F8081F1
:103D50009181019711969C938E93FE01E959FF4F33
:103D6000808191810097D1F627C08E0109591F4F9C
:103D7000FE01E759FF4F60817181828193810E942A
:103D80004F00DC01CB01F80191838083DE01AD5946
:103D9000BF4FFE01E959FF4F808191818D939C9324
:103DA000FE01ED59FF4F808191810197F1F7FE01EE
:103DB000ED59FF4F918380830E94971124C5809114
:103DC00041028823E1F580913F02909140020196E3
:103DD0009093400280933F0280913F029091400275
:103DE0008C33910560F11092400210923F02809155
:103DF0003D0290913E02019690933E0280933D02D7
:103E000080913D0290913E028C339105C0F010925A
:103E10003E0210923D0280913B0290913C0201963D
:103E200090933C0280933B0280913B0290913C0234
:103E30008831910520F010923C0210923B022091B3
:103E40003B0230913C0240913D0250913E02609114
:103E50003F02709140020DB71EB70A5010400FB6D6
:103E6000F8941EBF0FBE0DBFEDB7FEB73196CE0161
:103E70008F5B9E4F918380838FED90E0938382834D
:103E80003583248357834683718760870E94322558
:103E90002DB73EB7265F3F4F0FB6F8943EBF0FBE1B
:103EA0002DBF80E060E00E94BF10CE018F5B9E4F6F
:103EB00060E040E00E94E910A6C40E94220AFE01D0
:103EC000E65EFE4F8083FE01E15AFF4F80E090E006
:103ED000A8E4B2E480839183A283B3838E01055A60
:103EE0001F4FFE01E15AFF4F6081718182819381F2
:103EF00020E030E04AE755E40E942502DC01CB01D6
:103F0000F80180839183A283B383FE01E55AFF4FBA
:103F1000608171818281938120E030E040E85FE33D
:103F20000E947F03882344F4FE01E75AFF4F81E09B
:103F300090E09183808364C0FE01E55AFF4F608169
:103F400071818281938120E03FEF4FE757E40E9427
:103F50001F0318160CF043C0FE01E15AFF4F6081A9
:103F600071818281938120E030E040E251E40E943F
:103F70002502DC01CB018E01075A1F4FBC01CD0188
:103F80000E944F00DC01CB01F801918380831FC0A8
:103F9000FE01E95AFF4F80E991E091838083FE01A1
:103FA000E95AFF4F808191810197F1F7FE01E95AAB
:103FB000FF4F91838083DE01A75ABF4FFE01E75A6E
:103FC000FF4F80819181019711969C938E93FE0102
:103FD000E75AFF4F808191810097D1F628C08E016A
:103FE000075A1F4FFE01E55AFF4F608171818281A0
:103FF00093810E944F00DC01CB01F8019183808303
:10400000DE01AB5ABF4FFE01E75AFF4F808191811D
:1040100011969C938E93FE01EB5AFF4F8081918104
:104020000197F1F7FE01EB5AFF4F91838083FE0168
:10403000E65EFE4F8081803308F431C1FE01E65E0A
:10404000FE4F80818A3308F02AC1FE01E45FFE4FF3
:10405000808191810097C9F0FE01E45FFE4F80816D
:1040600091818130910589F0FE01E45FFE4F8081EE
:1040700091818330910549F0FE01E45FFE4F80811C
:1040800091818430910509F0BEC3FE01E45FFE4FCB
:10409000808191818330910539F4FE01E65EFE4F07
:1040A0008081863308F0AAC3FE01E45FFE4F2081C1
:1040B0003181CE01855C9E4FDC01A20FB31FFE0152
:1040C000E65EFE4F80818C93FE01E45FFE4F90819F
:1040D00081E0692F0E94BF10FE01E65EFE4F8081E5
:1040E0000E94E60EFE01E45FFE4F808191818130E7
:1040F000910541F0FE01E45FFE4F808191818430A3
:10410000910569F4DE01A45FBE4FFE01E45FFE4F3E
:1041100080819181029611969C938E930BC0DE0153
:10412000A45FBE4FFE01E45FFE4F80819181019646
:104130008D939C93FE01EF5AFF4F80E090E0A8E43E
:10414000B2E480839183A283B3838E01035B1F4F0C
:10415000FE01EF5AFF4F608171818281938120E0DF
:1041600030E04AE755E40E942502DC01CB01F8016A
:1041700080839183A283B383FE01E35BFF4F608161
:1041800071818281938120E030E040E85FE30E940A
:104190007F03882344F4FE01E55BFF4F81E090E05C
:1041A0009183808364C0FE01E35BFF4F6081718176
:1041B0008281938120E03FEF4FE757E40E941F0385
:1041C00018160CF043C0FE01EF5AFF4F6081718159
:1041D0008281938120E030E040E251E40E94250298
:1041E000DC01CB018E01055B1F4FBC01CD010E949C
:1041F0004F00DC01CB01F801918380831FC0FE01D9
:10420000E75BFF4F80E991E091838083FE01E75BEC
:10421000FF4F808191810197F1F7FE01E75BFF4F2E
:1042200091838083DE01A55BBF4FFE01E55BFF4FFD
:1042300080819181019711969C938E93FE01E55B9D
:10424000FF4F808191810097D1F6DDC28E01055B21
:104250001F4FFE01E35BFF4F60817181828193817B
:104260000E944F00DC01CB01F80191838083DE01C5
:10427000A95BBF4FFE01E55BFF4F808191811196E5
:104280009C938E93FE01E95BFF4F808191810197A2
:10429000F1F7FE01E95BFF4F91838083B4C2FE0119
:1042A000E65EFE4F80818D3309F0ADC20DB71EB7BB
:1042B000085010400FB6F8941EBF0FBE0DBFEDB7EB
:1042C000FEB73196CE01855C9E4F918380838EEE42
:1042D00090E0938382838DE392E0958384838FE3E0
:1042E00092E0978386830E9456252DB73EB7285FBC
:1042F0003F4F0FB6F8943EBF0FBE2DBF80913F02D7
:10430000909140028C33910530F08BE390E09093D4
:10431000400280933F020E94971186EF90E060E098
:1043200040E00E94E910FE01ED5BFF4F80E090E06D
:10433000AAE7B4E480839183A283B3838E01015CF6
:104340001F4FFE01ED5BFF4F608171818281938180
:1043500020E030E04AE755E40E942502DC01CB0171
:10436000F80180839183A283B383FE01FF9660816D
:1043700071818281938120E030E040E85FE30E9418
:104380007F0388232CF481E090E09EAF8DAF46C080
:10439000FE01FF96608171818281938120E03FEF71
:1043A0004FE757E40E941F03181664F5FE01ED5B0A
:1043B000FF4F608171818281938120E030E040E293
:1043C00051E40E942502DC01CB01BC01CD010E9419
:1043D0004F00DC01CB019EAF8DAF0FC080E991E0B3
:1043E0009CAF8BAF8BAD9CAD0197F1F79CAF8BAFC2
:1043F0008DAD9EAD01979EAF8DAF8DAD9EAD0097FB
:1044000069F716C0FE01FF966081718182819381F8
:104410000E944F00DC01CB019EAF8DAF8DAD9EADF4
:104420009AAF89AF89AD9AAD0197F1F79AAF89AF8D
:104430000E949711D0C020913D0230913E024091E0
:104440003F02509140020DB71EB7085010400FB602
:10445000F8941EBF0FBE0DBFEDB7FEB73196CE016B
:10446000855C9E4F9183808383E091E09383828378
:1044700035832483578346830E9432252DB73EB768
:10448000285F3F4F0FB6F8943EBF0FBE2DBFCE0141
:10449000855C9E4F60E040E00E94E91080E090E083
:1044A000AAE7B4E48DAB9EABAFABB8AF6DA97EA964
:1044B0008FA998AD20E030E04AE755E40E9425023C
:1044C000DC01CB0189AB9AABABABBCAB69A97AA9D8
:1044D0008BA99CA920E030E040E85FE30E947F03C5
:1044E00088232CF481E090E098AB8FA73FC069A9A6
:1044F0007AA98BA99CA920E03FEF4FE757E40E94DF
:104500001F0318164CF56DA97EA98FA998AD20E060
:1045100030E040E251E40E942502DC01CB01BC0105
:10452000CD010E944F00DC01CB0198AB8FA70FC0DB
:1045300080E991E09EA78DA78DA59EA50197F1F733
:104540009EA78DA78FA598A9019798AB8FA78FA538
:1045500098A9009769F714C069A97AA98BA99CA9A1
:104560000E944F00DC01CB0198AB8FA78FA598A9C3
:104570009CA78BA78BA59CA50197F1F79CA78BA760
:1045800080914102882339F580913F029091400249
:104590000097B1F480913D0290913E020097C9F0DE
:1045A00080913D0290913E02019790933E0280934C
:1045B0003D028BE390E09093400280933F0209C05C
:1045C00080913F0290914002019790934002809326
:1045D0003F020E94971180913D0290913E02009708
:1045E00031F480913F0290914002009729F0809130
:1045F0003902823009F41FCF80913902823009F0EC
:1046000002C18DE091E060E040E00E94E910A2E389
:10461000B0E0E2E3F0E0808180618C9380E090E0A4
:10462000AAE7B4E48FA398A7A9A7BAA76FA178A512
:1046300089A59AA520E030E04AE755E40E942502CA
:10464000DC01CB018BA39CA3ADA3BEA36BA17CA17A
:104650008DA19EA120E030E040E85FE30E947F034F
:1046600088232CF481E090E09AA389A33FC06BA13A
:104670007CA18DA19EA120E03FEF4FE757E40E946F
:104680001F0318164CF56FA178A589A59AA520E0FF
:1046900030E040E251E40E942502DC01CB01BC0184
:1046A000CD010E944F00DC01CB019AA389A30FC06A
:1046B00080E991E098A38F8F8F8D98A10197F1F7F2
:1046C00098A38F8F89A19AA101979AA389A389A101
:1046D0009AA1009769F714C06BA17CA18DA19EA13E
:1046E0000E944F00DC01CB019AA389A389A19AA162
:1046F0009E8F8D8F8D8D9E8D0197F1F79E8F8D8F63
:10470000A2E3B0E0E2E3F0E080818F7E8C9380E072
:1047100090E0AAE7B4E4898F9A8FAB8FBC8F698D44
:104720007A8D8B8D9C8D20E030E04AE755E40E9425
:104730002502DC01CB018D8B9E8BAF8BB88F6D89F1
:104740007E898F89988D20E030E040E85FE30E9409
:104750007F0388232CF481E090E09C8B8B8B3FC0FF
:104760006D897E898F89988D20E03FEF4FE757E470
:104770000E941F0318164CF5698D7A8D8B8D9C8DC8
:1047800020E030E040E251E40E942502DC01CB0150
:10479000BC01CD010E944F00DC01CB019C8B8B8BB7
:1047A0000FC080E991E09A8B898B89899A8901975A
:1047B000F1F79A8B898B8B899C8901979C8B8B8BCA
:1047C0008B899C89009769F714C06D897E898F89D0
:1047D000988D0E944F00DC01CB019C8B8B8B8B89C9
:1047E0009C89988B8F878F8598890197F1F7988B93
:1047F0008F87109239020E94971105C0809139026B
:10480000823009F45ACB80E090E0AAE7B4E48B87C9
:104810009C87AD87BE876B857C858D859E8520E0D6
:1048200030E04AE755E40E942502DC01CB018F838A
:104830009887A987BA876F81788589859A8520E0CE
:1048400030E040E85FE30E947F0388232CF481E09E
:1048500090E09E838D8340C06F81788589859A859D
:1048600020E03FEF4FE757E40E941F03181654F56E
:104870006B857C858D859E8520E030E040E251E4AB
:104880000E942502DC01CB01BC01CD010E944F003A
:10489000DC01CB019E838D830FC080E991E09C8376
:1048A0008B838B819C810197F1F79C838B838D8116
:1048B0009E8101979E838D838D819E81009769F7EC
:1048C0000C94A1146F81788589859A850E944F0088
:1048D000DC01CB019E838D838D819E819A838983A8
:1048E00089819A810197F1F79A8389830C94A114A5
:1048F000629FD001739FF001829FE00DF11D649FC4
:10490000E00DF11D929FF00D839FF00D749FF00D4F
:10491000659FF00D9927729FB00DE11DF91F639FF0
:10492000B00DE11DF91FBD01CF011124089597FBC2
:10493000092E07260AD077FD04D027D006D0002004
:104940001AF4709561957F4F0895F6F790958195CB
:104950009F4F089597FB092E05260ED057FD04D0D2
:1049600028D00AD0001C38F45095409530952195F8
:104970003F4F4F4F5F4F0895F6F790958095709594
:1049800061957F4F8F4F9F4F0895AA1BBB1B51E12D
:1049900007C0AA1FBB1FA617B70710F0A61BB70BAF
:1049A000881F991F5A95A9F780959095BC01CD0154
:1049B0000895A1E21A2EAA1BBB1BFD010DC0AA1F60
:1049C000BB1FEE1FFF1FA217B307E407F50720F078
:1049D000A21BB30BE40BF50B661F771F881F991FF3
:1049E0001A9469F760957095809590959B01AC013C
:1049F000BD01CF0108952F923F924F925F926F9227
:104A00007F928F929F92AF92BF92CF92DF92EF925E
:104A1000FF920F931F93CF93DF93CDB7DEB7CA1BDF
:104A2000DB0B0FB6F894DEBF0FBECDBF09942A880A
:104A3000398848885F846E847D848C849B84AA84B2
:104A4000B984C884DF80EE80FD800C811B81AA813F
:104A5000B981CE0FD11D0FB6F894DEBF0FBECDBF0A
:104A6000ED010895AEE0B0E0E8E3F5E20C9409252D
:104A70000D891E8986E08C831A8309838FEF9FE757
:104A80009E838D839E01275E3F4FCE0101966F89E5
:104A9000788DA9010E9477252F813885020F131F79
:104AA000F80110822E96E4E00C942525AEE0B0E0EB
:104AB000ECE5F5E20C940B2585E08C838B899C89D1
:104AC0009A8389839E01295E3F4FCE0101966D89AD
:104AD0007E89A9010E94D8282E96E2E00C94272511
:104AE000B0D520F09F3708F4C4C582C59CC5ABE0A3
:104AF000B0E0EDE7F5E20C94FB243C012B015A01F8
:104B0000FC0117821682838181FD03C06FEF7FEF66
:104B1000C6C19AE0892E1E010894211C311CF301A4
:104B20002381F20123FD859123FF81912F018823A9
:104B300009F4B2C1853239F423FD859123FF8191B7
:104B40002F01853229F490E0B3010E94542AE7CF67
:104B5000982FFF24EE249924FFE1FF15D0F09B321B
:104B600069F09C3228F4903259F0933291F40EC0DF
:104B70009D3249F0903369F441E024C052E0F52AB7
:104B800084E0F82A28C098E0F92A25C0E0E1FE2A4E
:104B900022C0F7FC29C0892F80538A3070F4F6FEBA
:104BA00005C0989C902C1124980E15C0E89CE02C10
:104BB0001124E80EF0E2FF2A0EC09E3229F4F6FC22
:104BC0006BC140E4F42A07C09C3619F450E8F52A7A
:104BD00002C0983649F4F20123FD959123FF91918B
:104BE0002F01992309F0B8CF892F8554833018F00D
:104BF0008052833038F444E050E0A40EB51E5FE3E9
:104C000059830FC0933631F0933779F0933509F01B
:104C100056C020C0F5018081898342E050E0A40E97
:104C2000B51E610101E010E012C0F501C080D18025
:104C3000F6FC03C06FEF7FEF02C0692D70E042E029
:104C400050E0A40EB51EC6010E94072A8C015FE742
:104C5000F52214C0F501C080D180F6FC03C06FEFCF
:104C60007FEF02C0692D70E042E050E0A40EB51E57
:104C7000C6010E94FC298C0150E8F52AF3FE07C00A
:104C80001AC080E290E0B3010E94542AEA948E2D6B
:104C900090E008171907A8F30EC0F601F7FC8591FC
:104CA000F7FE81916F0190E0B3010E94542AE11058
:104CB000EA94015010400115110579F7EAC09436C5
:104CC00011F0993669F5F7FE08C0F50120813181B0
:104CD0004281538184E090E00AC0F5018081918196
:104CE0009C01442737FD4095542F82E090E0A80EA8
:104CF000B91E9FE6F92257FF09C05095409530959F
:104D000021953F4F4F4F5F4FE0E8FE2ACA01B9019E
:104D1000A1012AE030E00E949A2AD82ED21840C081
:104D2000953729F41F2D1F7E2AE030E01DC01F2D6E
:104D3000197F9F3661F0903720F4983509F0ACC0A8
:104D40000FC0903739F0983709F0A6C004C028E0AA
:104D500030E00AC0106114FD146020E130E004C0AE
:104D600014FD166020E132E017FF08C0F5016081F4
:104D700071818281938144E050E008C0F501808117
:104D80009181BC0180E090E042E050E0A40EB51EAD
:104D9000A1010E949A2AD82ED2188FE7F82EF1226C
:104DA000F6FE0BC05EEFF522D91438F4F4FE07C00E
:104DB000F2FC05C08FEEF82202C01D2D01C0192D96
:104DC000F4FE0DC0FE01ED0DF11D8081803319F45C
:104DD00099EEF92208C01F5FF2FE05C003C08F2DB7
:104DE000867809F01F5F0F2DF3FC14C0F0FE0FC092
:104DF0001E1510F09D2C0BC09D2C9E0C911A1E2D83
:104E000006C080E290E0B3010E94542A1F5F1E1585
:104E1000C0F304C01E1510F4E11A01C0EE2404FF13
:104E20000FC080E390E0B3010E94542A02FF1DC02E
:104E300001FD03C088E790E00EC088E590E00BC05C
:104E4000802F867891F001FF02C08BE201C080E2E2
:104E5000F7FC8DE290E0B3010E94542A06C080E383
:104E600090E0B3010E94542A9A94D914C0F3DA94C2
:104E7000F101ED0DF11D808190E0B3010E94542AF3
:104E8000DD20A9F706C080E290E0B3010E94542A19
:104E9000EA94EE20C1F743CEF30166817781CB011E
:104EA0002B96E2E10C941725FC0120FD08C023FDA0
:104EB00005C022FF02C0738362835183408308953B
:104EC000EF92FF920F931F9344FF02C033E011C093
:104ED00046FF02C034E00DC0DB01FC01AA0FBB1F7E
:104EE000EE1FFF1F1094D1F76A0F7B1F8E1F9F1FAD
:104EF00031E0660F771F881F991F3150D1F77B0172
:104F00008C01E20EF11C011D111DA8019701B701D2
:104F1000CA011F910F91FF90EF9008950F931F9377
:104F2000CF93DF938C01C8010E94122AEC0197FDF8
:104F300008C00E94E929892BB1F7CE01B8010E946F
:104F4000802ACE01DF91CF911F910F910895A0E0AB
:104F5000B0E0EDEAF7E20C940325EC01C62E5A010D
:104F6000122F0E94122AAC018B3219F08D3251F4AB
:104F70001068CA9409F46DC0CE010E94122AAC01D7
:104F800097FD67C06DEFD62ED1228D2D807301F570
:104F90004033F1F4CA9409F447C0CE010E94122AAA
:104FA000AC0197FD41C082E0D82A483711F048355E
:104FB00059F480E4D82ACA94B9F1CE010E94122A89
:104FC000AC0199232CF430C0D6FC02C080E1D82A71
:104FD000EE24FF248701242F2053283088F0D4FCAE
:104FE00009C02A3068F0D6FE05C02F7D822F81517E
:104FF000863028F0CA01BE010E94802A12C02750C4
:10500000C801B7014D2D0E9460277B018C0182E011
:10501000D82ACA9461F0CE010E94122AAC0197FFEF
:10502000DACFD1FC04C015C0EE24FF248701D7FEDF
:1050300008C010950095F094E094E11CF11C011D4E
:10504000111DC501B801A7012D2D0E94542781E033
:1050500001C080E0CDB7DEB7EAE00C941F25A0E2E6
:10506000B0E0E5E3F8E20C94FF246C01A62E8A017F
:105070007901FE01319680E2DF011D928A95E9F700
:1050800070E030E060E040E050E04F01A1E0B0E0CF
:10509000F6018381F70183FD259183FF21917F0133
:1050A000222309F47EC02E3519F44115510569F10A
:1050B000872F90E08417950744F42D3551F12D3258
:1050C00021F4332329F431E021C0332309F4622F82
:1050D000322F832F869586958695F401E80FF11D72
:1050E000832F87703D0102C0660C771C8A95E2F71A
:1050F000208126292083361711F430E007C03617A7
:1051000010F43F5FE6CF3150E4CF71E04F5F5F4F67
:10511000BFCF332319F08E8180628E83772359F0BD
:10512000FE0131969E012F5D3F4F808180958193D6
:10513000E217F307D1F7BB24B3944E010894811C06
:10514000911CC6010E94122AAC0197FD22C08695CF
:1051500086958695F401E80FF11D808190E09A0113
:105160002770307002C0959587952A95E2F780FDEB
:1051700005C0CA01B6010E94802A0BC001151105A5
:1051800019F0D8014D938D01AA94BB24AA20C9F629
:1051900002C0BB2031F40115110529F0F80110827D
:1051A00002C0EE24FF24C701A096EEE00C941B255C
:1051B000A0E0B0E0EEEDF8E20C94FF245C016B019E
:1051C0003A01FC01178216828824EAC0812F90E000
:1051D0000E94E929892B21F0C5010E948E27E0C099
:1051E000153249F4F601F3FC6591F3FE61916F010C
:1051F000653269F415E2C5010E94122A97FDDCC0F0
:10520000181709F4CDC0B5010E94802ADAC06A32AD
:1052100019F0162F00E006C0F3FC1591F3FE119172
:105220006F0101E099240FC00260692D70E080E0F9
:1052300090E040E20E946027962EF601F3FC159163
:10524000F3FE11916F01212F20532A3068F301FDE5
:1052500003C099249A9403C0992009F4B2C0183667
:1052600021F01C3699F4F6010BC0F601F3FC6591B0
:10527000F3FE6191683619F06F01162F07C00860C0
:105280000460F3FC1591F3FE11916F01112309F4F1
:1052900098C084E590E0612F70E00E94F129892B8D
:1052A00009F48FC0802F00FF03C0EE24FF2407C045
:1052B000F301E080F18022E030E0620E731E1E36C2
:1052C00051F4F5014681578160E070E0C701202F5D
:1052D0000E94542765C0133691F481FD02C09924C1
:1052E0009394C5010E94122A97FD66C0E114F1044F
:1052F00019F0F70181937F019A9499F74FC01B35FC
:1053000059F4C501692DA70196010E942F286C014F
:10531000009709F043C03DC0C5010E948E2797FD4C
:105320004BC01F3659F1103728F4143629F11936BD
:1053300039F527C0133719F0153711F51DC0C50110
:105340000E94122AEC0197FD11C00E94E929892BC5
:1053500029F0CE01B5010E94802A08C0E114F104B1
:1053600019F0F701C1937F019A9449F7E114F10410
:10537000A9F0F701108212C0006203C0006101C0F1
:105380000064C501692DA701202F0E94A72788234B
:1053900029F4F5018381807379F413C000FF8394AD
:1053A000F501F380F601F3FC1591F3FE11916F0105
:1053B000112309F00BCF05C0882019F42FEF3FEF20
:1053C00002C0282D30E0C901CDB7DEB7EEE00C9465
:1053D0001B25911154C1803219F089508550D0F7A6
:1053E0000895FC010590061621F00020D9F7C001B0
:1053F00008953197CF010895FC01059061507040E8
:105400000110D8F7809590958E0F9F1F0895FC018D
:105410006150704001900110D8F7809590958E0FE3
:105420009F1F0895CF93DF93EC014B8140FF1AC07B
:1054300046FF0AC04F7B4B838E819F8101969F83DD
:105440008E838A81282F2BC042FF13C0E881F98107
:105450008081282F332727FD30952115310529F428
:1054600040624B832FEF3FEF1BC03196F983E883F7
:1054700011C0EA85FB85CE0109959C0197FF0AC002
:105480009B812F5F3F4F11F080E201C080E1892BAB
:105490008B83E8CF8E819F8101969F838E8330E03E
:1054A000C901DF91CF9108950F931F93CF93DF939D
:1054B0008C01EB018B8181FF1BC082FF0DC02E810F
:1054C0003F818C819D812817390764F4E881F98137
:1054D0000193F983E88306C0E885F985802F099553
:1054E000892B31F48E819F8101969F838E8302C028
:1054F0000FEF1FEFC801DF91CF911F910F9108951A
:105500009C01FB01838180FF11C086FD0FC09FEFCE
:105510002F3F390759F0228380648F7D83838681F2
:10552000978101979783868330E002C02FEF3FEF8A
:10553000C9010895FA01AA27283051F1203181F1DB
:10554000E8946F936E7F6E5F7F4F8F4F9F4FAF4F8B
:10555000B1E03ED0B4E03CD0670F781F891F9A1F9E
:10556000A11D680F791F8A1F911DA11D6A0F711D52
:10557000811D911DA11D20D009F468943F912AE05E
:10558000269F11243019305D3193DEF6CF01089546
:10559000462F4770405D4193B3E00FD0C9F7F6CF77
:1055A000462F4F70405D4A3318F0495D31FD40523F
:1055B000419302D0A9F7EACFB4E0A69597958795D5
:1055C00077956795BA95C9F70097610571050895B4
:1055D0009B01AC010A2E0694579547953795279560
:1055E000BA95C9F7620F731F841F951FA01D0895F8
:1055F000882371F4772321F09850872B762F07C0EA
:10560000662311F499270DC09051862B70E060E05D
:105610002AF09A95660F771F881FDAF7880F9695FC
:10562000879597F908959F3F31F0915020F4879521
:1056300077956795B795880F911D9695879597F9FA
:10564000089528D0A0F0BEE7B91788F4BB279F388B
:1056500060F41616B11D672F782F8827985FF7CF53
:10566000869577956795B11D93959639C8F30895FA
:10567000E894BB2766277727CB0197F908959927E8
:105680008827089557FD9058440F551F59F05F3FE4
:1056900071F04795880F97FB991F61F09F3F79F054
:1056A00087950895121613061406551FF2CF4695D6
:1056B000F1DF08C0161617061806991FF1CF869558
:0C56C0007105610508940895F894FFCF6F
:1056CC0025642E2530326400256C640057656C63AC
:1056DC006F6D650054696D6572204D6F6465004592
:1056EC006E746572204D4D3A53530043616C637573
:1056FC006C61746F72204D6F64650053746F7077BA
:10570C0061746368206D6F646500456E746572200A
:10571C006E756D313A00456E746572206F706572EE
:10572C0061746F723A00456E746572206E756D32DD
:10573C003A004D617468204572726F72002000252A
:10574C003032643A253032643A25303264002532E6
:10575C00643A2532640054696D6572205374617229
:10576C00747300253032643A253032640054696D0C
:10577C006527732055702100000000000000000018
:10578C0000010202030303030404040404040404DC
:10579C0005050505050505050505050505050505AD
:1057AC00060606060606060606060606060606068D
:1057BC00060606060606060606060606060606067D
:1057CC00070707070707070707070707070707075D
:1057DC00070707070707070707070707070707074D
:1057EC00070707070707070707070707070707073D
:1057FC00070707070707070707070707070707072D
:10580C00080808080808080808080808080808080C
:10581C0008080808080808080808080808080808FC
:10582C0008080808080808080808080808080808EC
:10583C0008080808080808080808080808080808DC
:10584C0008080808080808080808080808080808CC
:10585C0008080808080808080808080808080808BC
:10586C0008080808080808080808080808080808AC
:10587C00080808080808080808080808080808089C
:10588C003132332F3435362A3738392D50303D2BC1
:08589C00FF30303A303000000B
:00000001FF
